:030AD100012500FC
:100A5A00120AFE20A3187F58120AB120A302052504
:100A6A00D3E5259402748094804003E4F525E525B6
:100A7A00700512088C80DCE52564017005120A18DD
:0D0A8A0080D1E525640270CB1209CA80C638
:100AD400021F00000223000002210000021D00008A
:100AE4001409003F0006005B004F0066006D007CA7
:090AF4000007007F006701080003
:10088C00C3E51E94FAE51D9400501975A07975B056
:10089C0001AE1FAF20120A9EE5B025E0F5B0AE1FE9
:1008AC00AF20803FC3E51E94E8E51D9403501275FC
:1008BC00A07A120A97E5B025E0F5B0AE23AF2480FC
:1008CC0022C3E51E94DCE51D9405502475B001751A
:1008DC00A07CAE21AF22120A9EE5B025E0F5B0AEA9
:1008EC0021AF227C007D0A120975ED120AA6800543
:0E08FC00E4F51DF51E051EE51E7002051D2209
:010B0E0022C4
:100A180075A0FA120A97E5B025E0F5B0AE23AF2429
:100A28007C007D0A120975ED120AA620A6107FF433
:100A3800120AB120A6080524E5247002052320A582
:100A4800107FF4120AB120A508E5241524700215B8
:020A5800232257
:1009CA0075B00175A0FCAE21AF22120A9EE5B025D2
:1009DA00E0F5B0AE21AF227C007D0A120975ED1256
:1009EA000AA620A6107FF4120AB120A6080522E55D
:1009FA00227002052120A5107FF4120AB120A50851
:0E0A0A00E522152270021521E4F51DF51E22CD
:100A970075B001AE23AF247C007D0A120975EF25DE
:0A0AA700E02409F808E6F5907F0F3F
:100AB100E4FDFCD3ED9FEC9E5015E4FBFA0BBB006B
:0F0AC100010AEB64794A70F50DBD00010C80E469
:010AD0002203
:100AFE00758901758CC3758A50D28CD2A9D2AF225A
:03000B0002090ADD
:10090A00C0E0C0D00508758CC3758A50C3E5089449
:10091A001474809480404D750800E520943CE51FCE
:10092A009400500A0520E520703C051F8038C3E575
:10093A0024943CE52394005010751F00752000058F
:10094A0024E52470210523801DC3E522943CE5217A
:10095A00940050127523007524000522E5227006C2
:0B096A0005218002D28CD0D0D0E032FA
:03000000020800F3
:0C080000787FE4F6D8FD758125020847DA
:10097500BC000BBE0029EF8DF084FFADF022E4CC66
:10098500F875F008EF2FFFEE33FEEC33FCEE9DEC2F
:10099500984005FCEE9DFE0FD5F0E9E4CEFD22ED75
:1009A500F8F5F0EE8420D21CFEADF075F008EF2FBF
:1009B500FFED33FD4007985006D5F0F222C398FDB0
:0509C5000FD5F0EA224D
:10080C00020A5AE493A3F8E493A34003F68001F29E
:10081C0008DFF48029E493A3F85407240CC8C333ED
:10082C00C4540F4420C8834004F456800146F6DFBC
:10083C00E4800B0102040810204080900AD1E47E71
:10084C00019360BCA3FF543F30E509541FFEE493B1
:10085C00A360010ECF54C025E060A840B8E493A378
:10086C00FAE493A3F8E493A3C8C582C8CAC583CAA3
:10087C00F0A3C8C582C8CAC583CADFE9DEE780BE5B
:010AFD0000F8
:00000001FF
